S01F00004C45445F424C494E4B45525F574954485F5357495443482E73726563FE
S11300000C945A000C946C000C946C000C946C00CE
S11300100C946C000C946C000C946C000C946C00AC
S11300200C946C000C946C000C946C000C94AF0059
S11300300C946C000C946C000C946C000C946C008C
S11300400C946C000C946C000C946C000C946C007C
S11300500C946C000C946C000C946C000C946C006C
S11300600C946C000C946C000C946C000C946C005C
S11300700C946C000C946C000C946C000C946C004C
S11300800C946C000C946C000C946C000C946C003C
S11300900C946C000C946C000C946C000C946C002C
S11300A00C946C000C946C000C946C000C946C001C
S11300B00C946C0011241FBECFEFD8E0DEBFCDBF7F
S11300C021E0A0E0B1E001C01D92AB30B207E1F73E
S11300D00E94A7000C940C010C94000084B180626F
S11300E084B984B18F7784B90895809104018823F9
S11300F079F090910A0191110BC081E09091070170
S1130100911180E08093070181E080930A010895B2
S1130110811105C080910A01811110920A0108958C
S1130120E1E8F0E08081886080838081836080835F
S113013080818B7F8083EFE6F0E080818260808322
S11301408CE790E0909389008093880008950E9442
S11301506E000E94900078940E947500FDCF1F925B
S11301600F920FB60F9211242F938F939F93809128
S1130170080190910901009729F0019790930901D2
S113018080930801809100019091010101978E3FB5
S11301902FEF920720F49093010180930001809146
S11301A00501909106010196909306018093050143
S11301B0883E934059F410920601109205018091F3
S11301C00701813019F483B1806283B91F9B07C092
S11301D01092030110920201109204010CC080914C
S11301E00201909103018F3F910528F401969093A9
S11301F00301809302018091020190910301C3974E
S113020018F081E0809304019F918F912F910F90BA
S10F02100FBE0F901F901895F894FFCFBC
S9030000FC
