:100000000C945A000C946C000C946C000C946C00D2
:100010000C946C000C946C000C946C000C946C00B0
:100020000C946C000C946C000C946C000C94AF005D
:100030000C946C000C946C000C946C000C946C0090
:100040000C946C000C946C000C946C000C946C0080
:100050000C946C000C946C000C946C000C946C0070
:100060000C946C000C946C000C946C000C946C0060
:100070000C946C000C946C000C946C000C946C0050
:100080000C946C000C946C000C946C000C946C0040
:100090000C946C000C946C000C946C000C946C0030
:1000A0000C946C000C946C000C946C000C946C0020
:1000B0000C946C0011241FBECFEFD8E0DEBFCDBF83
:1000C00021E0A0E0B1E001C01D92AA30B207E1F743
:1000D0000E94A7000C9400010C94000084B180627F
:1000E00084B984B18F7784B90895809104018823FD
:1000F00059F090910901911107C085B18F7D85B9A3
:1001000081E0809309010895811109C0809109015E
:10011000882329F085B1806285B91092090108957C
:10012000E1E8F0E080818860808380818360808363
:1001300080818B7F8083EFE6F0E080818260808326
:100140008CE790E0909389008093880008950E9446
:100150006E000E94900078940E947500FDCF1F925F
:100160000F920FB60F9211242F938F939F9380912C
:10017000070190910801009729F0019790930801D9
:1001800080930701809100019091010101978E3FBA
:100190002FEF920720F4909301018093000180914A
:1001A000050190910601883E934021F410920601CA
:1001B000109205011F9B07C01092030110920201CB
:1001C000109204010CC080910201909103018F3FB5
:1001D000910528F401969093030180930201809188
:1001E000020190910301C39718F081E0809304010C
:1001F0009F918F912F910F900FBE0F901F90189588
:04020000F894FFCFA0
:00000001FF
